:020000040800F2
:1000000018060020312100080D2100080F210008EA
:10001000112100081321000815210008000000002C
:100020000000000000000000000000001721000890
:1000300019210008000000001B2100081D210008F4
:1000400065210008692100086D2100087121000860
:1000500075210008792100087D2100088121000810
:1000600085210008892100088D21000891210008C0
:1000700095210008992100089D210008A121000870
:10008000A5210008A9210008AD210008B121000820
:10009000B5210008B9210008BD210008C1210008D0
:1000A000C5210008C9210008CD210008D121000880
:1000B000D5210008D9210008DD210008E121000830
:1000C000E5210008E9210008ED210008F1210008E0
:1000D000F5210008F9210008FD210008012200088F
:1000E00005220008092200080D220008F8B50400C6
:1000F0001BD004F13C05697821B900202870204606
:1001000000F043FC24216970206802685208520004
:10011000026000F09AFE01466068DFF820229042FB
:1001200005D2DFF81C32994205D20120F2BDDFF87A
:1001300014028142F9D32068DFF80C324668B1FB23
:10014000F3F3B60943EA861646602668376A6068A4
:10015000904206D34FF4967043434FF47A70B3FB4A
:10016000F0F35B1CBF0943EA87133362491E23681F
:10017000DE696768974206D27F0000F043F80429E1
:1001800013D2042111E0A06820B907EB470700F063
:1001900039F805E01920474300F034F841F4804174
:1001A00008050CBF012141F40041DFF8A001064021
:1001B0000E43DE6122681368E169206A23F0C00300
:1001C0000B43034313602268DFF8840193682169BD
:1001D0000340E0680B43034393602168CA68A36946
:1001E0006069120A034343EA0222CA602068016878
:1001F00041F00101016000206860202169702063E6
:10020000A870F2BDB1FBF7F1491CC1F30B017047B7
:100210004146204600F0F5BA308D7262411E3185AC
:10022000708D411E7185704700222946304600F0CE
:100230007FBA2DE9FC4700F08DF800F091F85DD110
:1002400000F074F8002859D13878012856D000F011
:1002500067F801D400F083F94146D6F800E00C9D20
:100260000B98DDF828C0DEF8008028F40068CEF88E
:1002700000804FF0210E87F801E04FF0400887F82A
:1002800002804FF0000EC7F804E000F03EF900F0E5
:10029000B1F900282BD108E0716A0A780261706A0E
:1002A000411C7162308DFFF7B9FF308DA0B122463D
:1002B0002946304600F0A5FAA0B9706A3268017884
:1002C0001161706A411C7162308D411E00F019F895
:1002D000EBD589B20029DFD122462946304600F00D
:1002E000BBFA30B17868042801D100F03FF8012052
:1002F00005E000F03BF800F00CF800E00220BDE85B
:10030000F6873185708D421E7285306842695307C9
:100310007047202078700021B97000203870704735
:100320000121397030680268D107704700941923A1
:1003300001225549304600F0FBB90000A1860100BA
:1003400080841E0000093D0040420F000030FFFF86
:10035000007CFFFF0646884691469A4600F0B8BDED
:1003600006F13C0704467878202870473068016819
:1003700041F40071016070472DE9FC47FFF7EAFF87
:10038000FFF7EEFF7DD1FFF7D1FF002879D1387854
:10039000012876D0FFF7C4FF01D400F0E0F8414611
:1003A000D6F800E00C9D0B98DDF828C0DEF8008040
:1003B00028F40068CEF800804FF0220E87F801E0A4
:1003C0004FF0400887F802804FF0000EC7F804E0B5
:1003D00000F09BF800F056F9002847D1308D10B995
:1003E00000F077F818E0012802D100F0D9F805E014
:1003F00002283068016804D100F0C2F80A6062B6D1
:100400000AE000F0B1F807E000F046F800282DD12E
:1004100000F047F8FFF700FF308D00282ED00428A9
:1004200021D20128F0D00228DFF8988100942B46D1
:1004300009D100224146FFF7F9FE002816D172B615
:1004400000F079F8E4E700224146FFF7EFFE0028CC
:100450000CD100F069F82B4600F047F84146FFF751
:10046000E5FE18B9ECE700F017F808B1012009E043
:1004700000F01EF8D0D500F009F8CBE7FFF749FFF0
:1004800000E00220BDE8F687020010000069716AF2
:100490000870706A421C704722462946304600F0B8
:1004A000F8B930680169706A0170716A4A1C704756
:1004B00030680169706A0170716A308D4A1C411E92
:1004C00072623185708D411E7185306841694A07BD
:1004D0007047009031684A6900928B6900930098D8
:1004E0000A6842F400720A60704730680169706AF5
:1004F0000170716A308D4A1C411E72623185002282
:10050000708D411E718500947047C6F824C07085B7
:100510005346708D30854A46DFF8D400F06201946E
:1005200000953046704700003068016821F4806112
:10053000016072B670473068016841F40071016073
:1005400030680169706A0170716A308D4A1C411E01
:1005500072623185708D411E718562B67047026886
:1005600042F001020260704741F4806101600020A6
:10057000009031684A69009289690091009870473B
:1005800041F40061016072B60020009031684A6950
:1005900000928B69009300980A6822F48062704789
:1005A0003068016821F48061016072B6002000901B
:1005B00031684A6900928B69009300980A6842F496
:1005C0000072704704000100009021684A6900929F
:1005D000704701600096534600224FF001112046FB
:1005E00000F0A6B8016841F4806101607047000026
:1005F0000000FFFF2DE9F84304462068DDF8208065
:10060000099F8946016841F4807115461E460160C4
:1006100000974346FFF7E0FF08BB206809F0FE01A2
:1006200001613B464246414900F02AF8B8B9FFF75C
:10063000CBFF3A468969009141460098FFF7E9FDF2
:1006400040B9012E0DD02168280A08613A46FFF70B
:10065000DFFD30B1206C042801D100F008F8012042
:1006600003E02068EDB205610020BDE8F283206858
:10067000016841F4007101607047334652464946B3
:1006800020467DE02DE9FC4704462068DDF828A0DF
:100690000B9E0F46FFF7A6FF15462068016841F440
:1006A00080719846FFF795FF00283BD12168DFF85D
:1006B0007C9007F0FE000861FFF7DFFF002831D1D2
:1006C000FFF782FF32468969009151460098FFF793
:1006D000A0FD90B9B8F1010F07D02168280A086180
:1006E00032465146FFF795FD38B92068EDB20561F5
:1006F00032465146FFF78DFD28B1206C042811D1F8
:10070000FFF7B5FF0EE02068016841F48071FFF744
:1007100060FF38B9206847F00107FFB20761FFF7B3
:10072000ACFF00B10120BDE8F68700000200010027
:100730002DE9F041069F05460E4690461C463102C3
:100740002868090E01290CBF40698069304080B2D9
:10075000B1B288420CBF0120002040450DD114F1F8
:10076000010FECD000F0B4FBC01B844201D3002C7D
:10077000E5D100F063F8012000E00020BDE8F08141
:10078000F8B505460E4614461F463102090E286884
:10079000012919D14169314089B2B2B2914219D0CF
:1007A00041694A0518D500F025F82A6850610021F2
:1007B00005F13C002963202242708170426842F0BA
:1007C00004024260017013E08169314089B2B2B223
:1007D0009142E5D10020F2BD14F1010FD5D000F017
:1007E00077FBC01B844201D3002CCED100F026F849
:1007F0000120F2BD016841F4007101606FF4806076
:10080000704770B505460C461646286841690806CB
:1008100012D4284600F069F808B1012070BD14F127
:10082000010FF2D000F054FB801B844201D3002C56
:10083000EBD100F003F8F0E7002070BD0020286342
:10084000202105F13C00002241708270416841F096
:10085000200141600270704770B505460C4616468F
:1008600028684169480712D4284600F03EF808B1CC
:10087000012070BD14F1010FF2D000F029FB801BA4
:10088000844201D3002CEBD1FFF7D8FFF0E7002022
:1008900070BD70B505460C461646286841694A0683
:1008A00017D44169CA060BD400F012FB801B8442A6
:1008B00001D3002CF1D100F00EF841F0200104E04A
:1008C0006FF01001416100F006F8416002700120F4
:1008D00070BD002070BD00202863202105F13C0080
:1008E0000022417082704168704701684A6953056F
:1008F0000FD56FF480624A61002101633C302022F1
:1009000042708170426842F004024260017001202E
:1009100070470020704730B4002513E050F8042BD6
:10092000D30744BFA9F101039A18091F042942F80B
:10093000045BFAD213468C0744BF15809B1CC90781
:1009400048BF1D7050F8041B0029E7D130BC704728
:10095000244881B0016841F001010160026802F0A1
:10096000010200920099426842F080524260406861
:1009700000F08050009000981B48016821F0E06171
:1009800041F00071016001B0704718B585B00446B0
:100990001022002101A800F0A1FA21681348814229
:1009A0001DD1104C216841F0080121604FF44061D5
:1009B000206800F008000090122200980C48019175
:1009C00002920321049101A900F092FA606840F4B8
:1009D00080006060606800F480000090009806B0BD
:1009E00010BD0000181002400400014000580040F3
:1009F000000C01402DE9F843040016D02078DFF800
:100A00006064C10713D5706800F00C00042807D09B
:100A1000706800F00C00082841D17068C1033ED511
:100A20003068810303D56068002800F06481207875
:100A3000DFF83C74810719D5706810F00C0F07D0EF
:100A4000706800F00C00082861D17068C1035ED4A2
:100A50003068810703D52069012840F04C81316856
:100A6000606921F0F80141EAC0013160217808078E
:100A700040F18180A069DFF8FC13002800F0A68017
:100A800001220A6000F024FA0546706A810763D4E7
:100A900000F01EFA401B0228F7D903202EE16068FF
:100AA000B0F5803F04D1306840F48030306014E00D
:100AB00008B930680AE0B0F5A02F306806D140F4DC
:100AC00080203060316841F4803105E020F48030CE
:100AD0003060316821F480213160606858B100F0E5
:100AE000F7F9054630688103A1D400F0F1F9401B05
:100AF0006528F7D3D1E700F0EBF9054630688103AC
:100B000095D500F0E5F9401B6528F7D3C5E72069C6
:100B1000A8B10121396000F0DBF905463068810792
:100B200005D400F0D5F9401B0228F7D9B5E73068A5
:100B3000616920F0F80040EAC100306096E7386053
:100B400000F0C6F90546316888078FD500F0C0F976
:100B5000401B0228F7D9A0E7DFF808030168C9089D
:100B60004FF47A72B1FBF2F2009200BF0098411E7E
:100B700000280091F9D1207841076ED5F069002551
:100B8000C10009D4F06940F08050F0610125F0699E
:100B900000F0805000900098DFF8DC82D8F8000068
:100BA000C10520D4D8F8000040F48070C8F80000D7
:100BB00000F08EF98146D8F80000C10513D400F08A
:100BC00087F9A0EB09006528F5D366E7086000F017
:100BD0007FF90546706A8107CDD500F079F9401B91
:100BE0000228F7D959E7E068012808D008B9306A27
:100BF00009E00528306A06D140F004003062306A0E
:100C000040F0010005E0400840003062306A20F00A
:100C10000400306241F28938E06860B100F058F9B0
:100C20008146306A810713D400F052F9A0EB090025
:100C30004045F6D331E700F04BF98146306A810731
:100C400006D500F045F9A0EB09004045F6D324E7AE
:100C50001DB1F06920F08050F061E06900284CD0AF
:100C6000716801F00C01082938D002282AD100F05F
:100C700047F805463068810105D500F029F9401B89
:100C80000228F7D909E7206AB0F5803F05D17168DD
:100C9000A06821F40031014371607268206A616AC2
:100CA00022F4741202430A437260012000F029F812
:100CB00004463068810120D400F00AF9001B0228A4
:100CC000F7D9EAE600F01CF804463068810114D533
:100CD00000F0FEF8001B0228F7D9DEE601280AD052
:100CE0007068226A00F48031914202BF00F47010F3
:100CF000616A884201D0012000E00020BDE8F28353
:100D00000020386600F0E4B82DE9F0410400884680
:100D10004ED05A4E00F077F802D200F06FF847D16B
:100D200020684F4D810712D5400703D5696841F40B
:100D3000E06169602078010703D5686840F460507D
:100D400068606968A06821F0F0010143696021785A
:100D5000C80725D56068012802D129688A0303E005
:100D60000228296802D18A0102D421E08A071FD50E
:100D70006968890840EA8100686000F0A9F80746C0
:100D80006868616800F00C00B0EB810F08D000F0DB
:100D90009FF8C01B41F289318842F1D303202BE038
:100DA000306800F00700804504D200F027F801D039
:100DB000012021E02078410705D56A68E06822F427
:100DC000E06202436A602178080706D569682069F5
:100DD00021F4605141EAC001696000F019F86A68C5
:100DE0002749204BC2F30312895CC84018601F4892
:100DF000006800F057F90020BDE8F0813168C908AB
:100E000048EAC1013160306800F007004045704792
:100E10001C4915480A6802F00C03082B00D07047E3
:100E200010B500BF1AA4C2F38343D203E35C08D514
:100E3000096858431AA3C1F340415A5CB0FBF2F071
:100E400010BD18461049484310BD06480D4A0068B9
:100E500013680E49C3F30222FFE7895CC84070475C
:100E6000001002400C00002000127A000800002050
:100E700000004242800442420070004000200240D4
:100E8000682000080410024000093D005C210008B1
:100E900002030405060708090A0B0C0D0E0F1010BB
:100EA000010230B40EE00268436802440830DC07F7
:100EB00044BFA9F10104E31852F8045B43F8045B52
:100EC000091FF9D150F8041B0029ECD130BC704740
:100ED00001484068704700BF0000002010B504467C
:100EE00010460A460146204600F0FCF8204610BD98
:100EF0002DE9F8474FF0000E00245D4A5D4BDFF806
:100F000078814FF00F0982460CE0D7683840D060F6
:100F100006E095604D68AD02F7D5D0680743D7600D
:100F20000EF1010E0F6837FA0EF000F09F800120DD
:100F300000FA0EF63740B742F2D1486838B30128BC
:100F40001AD002281DD003282ED0112816D012281E
:100F50001AD04A4DA8421CBF494DA84217D0494D4E
:100F6000A8421CBF484DA84211D0484DA8421CBF02
:100F7000474DA8420BD018E0CC6816E0CC68241D81
:100F800013E0CC68083410E0CC680C340DE08868BD
:100F900008B9042409E0012819BF0824CAF814601C
:100FA0000824CAF8106000E00024B7F5807F03D25F
:100FB00050464FEA8E0C05E0AEF108050AF1040038
:100FC0004FEA850C056809FA0CF6B54304FA0CF6ED
:100FD000354305604868C000A2D5D8F8000040F04D
:100FE0000100C8F80000D8F8005005F00105009590
:100FF0004FEA8E0500984FEA9E0053F8206005F0F6
:101000000C0C09FA0CF526EA0505224EB24508BF7C
:1010100000260ED0204EB24508BF012609D01F4E33
:10102000B24508BF022604D01D4EB2450CBF0326B0
:10103000042606FA0CF6354343F82050F8434D6871
:10104000ED0315684CBF3D43054015604D68AD0389
:1010500055684CBF3D43054055604D689668ED02AC
:101060004CBF47EA060500EA060552E7BDE8F187EE
:101070000004014008000140181002400000111057
:10108000000012100000211000002210000031109A
:101090000000321000080140000C01400010014027
:1010A0000014014038B50D4D0D4B2A7804464FF41D
:1010B0007A711868B1FBF2F2B0FBF2F000F07DF843
:1010C00050B9102C08D2002221464FF0FF3000F01A
:1010D00057F8AC60002032BD012032BD0000002076
:1010E0000C00002062F30F2262F31F42401810F040
:1010F000030308D0C91A1FD3DB0748BF00F8012D2E
:1011000028BF20F8022D130030B4144615461039BC
:1011100028BF20E93C00FAD8490728BF20E90C0085
:1011200048BF40F8042D890028BF20F8022D48BF91
:1011300000F8012D30BC7047C91818BF00F8012D08
:10114000CB0728BF00F8012D7047000009010200FD
:1011500002D4244881547047234B02F00F021A44F2
:1011600002F8041C7047214B19684FF6FF02000279
:10117000114000F4E06008431D49084318607047BF
:1011800070B51A4B1C68C4F302230124C3F1070590
:10119000052D2EBF0F2504FA05F56D1E1E1D072E09
:1011A00034BF0023DB1E2940994004FA03F3BDE855
:1011B00070405B1E1A401143C8E710B5401EB0F1E5
:1011C000807F01D3012010BD0A4C60600F214FF0D9
:1011D000FF30FFF7BBFF0021A16007202060002047
:1011E00010BD000000E400E018ED00E00CED00E0B0
:1011F0000000FA0510E000E038B584B0402000F0AF
:10120000D1F8092200F041F800F071F8092200F04D
:101210006AF89DF80C004106F6D4402000F039F839
:10122000022200F032F8632000F033F80A2200F0C6
:101230002CF8472000F02DF80C2200F026F800F0E2
:10124000A9F80D2200F021F800F0A4F8102200F017
:101250001CF8002000F01DF8042200F016F800F041
:1012600099F8052200F011F800F094F8062200F039
:101270000CF800F07BF803208DF80C000A21012205
:1012800003A802910192009097E0AE212046FEF75C
:10129000D0BF8DF80C000A21012203A8029101920F
:1012A00000900123704738B584B00021ADF80C10D0
:1012B0000A200121029001910DF10D05C84C009505
:1012C0000123042200F00FF800F011F8062200F0CC
:1012D0000AF89DF80D109DF80C00081A48BF203040
:1012E000C0B205B030BDAF212046FFF745B80A2295
:1012F000012003A902920190009101237047F0B5EB
:101300008BB004460D46062DA8BF05251920029076
:10131000062628467043019003AF00970123072259
:10132000AF21AF48FFF728F800201BE003A906FB18
:1013300000F211444A780B78120242EA03428B7899
:101340001A43C2F3110244F830200B79CA78497964
:101350001B0243EA02430B4304EBC002C3F3110335
:101360005360401CA842E1DB0BB0F0BD38B584B03F
:10137000002000F017F80022FFF7B5FF00F00AF890
:101380009DF80C500122FFF7AEFF9DF80C0028439A
:1013900005B030BD0A20012103AA029001910092FC
:1013A000012370478DF80C000A2101200291019061
:1013B00003AD8B4C00950123704701230922AE2118
:1013C0002046FEF736FF05B030BDF0B5854C002154
:1013D00000220023261D54F8335056F83370691844
:1013E000BA185B1C072BF6DB0368C918C908016033
:1013F00041685218D2084260F0BD70B53122794B75
:1014000003EBC204A4F108052E6843F83260521EB3
:101410006D686560D2B2002AF2D11860596070BD63
:101420002DE9F0416F4E37687468BC4625464FF091
:10143000000E56F83E80474538BF4746E04538BF66
:10144000C44606EBCE080EF1010ED8F804804445E0
:1014500038BF4446A84538BF4546BEF1320FE8DBE9
:10146000A7EB0C06674406807F080F60601B2C19F1
:10147000108064081C60BDE8F0812DE9F04F8BB04E
:10148000FFF711FF8246014601A8FFF738FF564DCE
:10149000D5F82080AF78DFF8549100248DE04946DC
:1014A00000F0B4F861D84FF07E5100F0C1F85CD282
:1014B0004F4900F0CFF800F039F902460B464D488D
:1014C0004D4900F057F900F0C7F94DE002AE49F67A
:1014D000404156F83400884204D200222A706A70D3
:1014E000002668E001A800EBC402D2E90001FFF782
:1014F00084FF05F11C0305F1120205F1180105F145
:101500001000FFF78DFF01A800EBC400FFF75DFF9F
:10151000288A00F0BFF98346A86900F0BBF90146AC
:10152000584600F0C5F90090688A00F0B3F9834688
:10153000E86900F0AFF90146584600F0B9F90146F4
:10154000009800F0B5F92D4900F060F8A7D8494699
:1015500000F06EF8A3D22A4900F07CF80146294831
:1015600000F024FA00F062FA687056F834B0A8EB84
:101570000B0630B23328A4BFF8B20D2819DB0920BE
:101580002A1D2919401EC9781155FAD1281D2F711D
:101590000A21005D484300F07DF900F0C7F80246DB
:1015A0000B460020184900F057FA00F055F9287052
:1015B0000027D8467F1CAE82641C544586DBAF7082
:1015C000C5F820800BB0BDE8F08F07480078704761
:1015D0000548407870470448B0F91400704700008F
:1015E000A001002010000020F4010020C3F5283FD6
:1015F0000000584214AE47E17A346040EC51B83EE6
:101600000000A0410000D642004CDD404FF0807C3D
:101610001CEB400F94BF1CEB410F05E040EA010CAE
:101620001CEB0C0F01D28142704718BF88427047F3
:101630004FF0807C1CEB400F94BF1CEB410F05E08A
:1016400040EA010C1CEB0C0F01D28842704718BF16
:1016500081427047FF2212EAD05C1DBF12EAD153CB
:10166000944593422BE09C44D30780EA01021A4040
:1016700043EA002043EA0121A1FB0030C04238BF09
:1016800040007CF17F010BDBFE294ADA5B0842EA6D
:10169000C15153EA006373F1004C51EB10207047C5
:1016A000D1F1080CDCF120012FDB5B0810FA01F10D
:1016B0000B4320FA0CF073F1004150417047944500
:1016C0001CBF02EAD153934280EA010202F00042B9
:1016D0001DD0400019D0490017D05BB9634514D024
:1016E0000902B1FA81F39940BCEB030CC00140F050
:1016F0000040C1E70002B0FA80FC10FA0CF0B3EB36
:101700000C0CC90141F00041B6E7100070474000E1
:101710000AD0490008D010F1807F94BF11F1807F7A
:1017200002E042F0FF407047D0437047C0F3C7511A
:1017300081B1FF2906D0C110400721F0E04101F13D
:101740006051704741020CBF40F4E0016FF000416E
:101750000020704700F0004100020AD0B0FA80FC7F
:1017600000FA0CF001F16051A1EB0C5101EBD0211A
:101770004005704770B44FF0004591EA030F40F107
:101780008F826B40841A71EB030603D2001BB141B8
:10179000121973414FF4001C1CEB410F34BF7CEB5A
:1017A000430442E00C0DA4EB1356352E4FDC45EA02
:1017B000C323DB0A45EAC121C912B6F120050DDDBC
:1017C00063FA05F6EB4086EA0305124218BF45F0BE
:1017D0000105C01851F100010CD213E062FA06F5C0
:1017E000F2405540F3415A40B340F3405A4080180C
:1017F000594107D349085FEA30005FEA350528BF41
:1018000045F0010501F58011420875F1004250F1E3
:10181000000041EB04514E0016F5001F70BC38BFAC
:1018200070470020090D090570471CEB410F10D2CD
:1018300052EA43060BD0BCEB410F05D80C0DAB436D
:10184000661E342EB6DD02E0AB438018594170BCF1
:10185000704770BC70470000C1F30A5340F2FE327B
:101860009B1A14DDD3F120034FEAE17208DDC902AF
:1018700041EA505141F00040D84080185040704734
:1018800003F2E13010B1D24382F0004070470020F3
:101890007047000000280AD0B0FA80F18840D1F1EA
:1018A0009D01C905020672F1004241EB102070470C
:1018B00010B5FF2313EAD0541DBF13EAD1529C4246
:1018C0009A4239E0A41ADA0780EA0103134042EA97
:1018D000012142EA0020421A3CBF641E01EB420291
:1018E000090AB2FBF1FE01FB1E221202B2FBF1F06B
:1018F00001FB10226EF30F201202B2FBF1FE4EEA42
:1019000000207F3406DDFE2C24DA53EA500050EB31
:10191000C45010BDD4F1020401FB1E2240F08071BE
:10192000192C1DDC21FA04F0C4F12004A14011435C
:1019300071F10042584110BD9C421ABF03EAD152D6
:101940009A420FE080EA010E0EF00043400004D0FE
:10195000490016D143F0FF4010BD490008BFD343F2
:10196000180010BD9C4205D1D21AF7D001F00041F9
:10197000484010BD4A0212BF0846484000F00040EF
:1019800010BD4AB90902B1FA81F2914044B1A418DC
:10199000C00140F000409EE7C90141F000415242C1
:1019A0000002B0FA80F4A040141B94E790EA010F03
:1019B00040F12C8281F00041421A3CBF801A891804
:1019C0004FF0004CC0F3C752FF2A24D0C1F3C753D5
:1019D00013B3D21AD2F1190327DD4CEA01214CFAD4
:1019E00003F321EA0303D140C20D4CEA0020401862
:1019F00034BF20EA0C004CEA5000D20553EA0063E1
:101A000073EB0C0C52EB1020420012F1807F38BFB8
:101A10007047C00DC0057047490212BF9A4200EBE3
:101A20005120F8E7D2F11703D9D57047C0F3C75159
:101A30007E390EDDC217D1F1200106DD000240F033
:101A40000040C840104450407047D04380F00040F0
:101A50007047002070470000F0B540F2FF7581EA42
:101A6000030C0CF0004C15EA11541DBF15EA135776
:101A7000AC42AF42E5E0BC41C1F31301C3F3130331
:101A8000801A994143F4801304D2641E40004941F6
:101A900080185941C90241EA5051B1FBF3F603FBEA
:101AA0001611A2FB0675D7EBC020A94102D2761E03
:101AB00080185941C90241EA5051B1FBF3FE03FBC2
:101AC0001E11A2FB0E75D7EBC020A94103D2AEF1C7
:101AD000010E80185941890241EA9051760546EA83
:101AE0008E2EB1FBF3F603FB1611A2FB0675D7EBA6
:101AF0008020A94102D2761E80185941C90241EACC
:101B000050514EEA060EB1FBF3F603FB1611A2FB91
:101B10000675D7EBC020A94102D2761E8018594124
:101B2000C90241EA5051B1FBF3F703FB1711A2FBC5
:101B30000735D3EBC020A94167F100070CBF004275
:101B400047F0010766F3D5274FEA1E31B80814F5B0
:101B5000806412DDBD0775F1004250EB0E5051EB71
:101B6000045111F5801F5CBF41EA0C01F0BD4CF03F
:101B70007F6141F0E0410020F0BDBD076D0840EA03
:101B80000E5041F48011D4F10104B4F120060ADAB8
:101B9000C4F120060200E04001FA06F3E1401843D8
:101BA000B24015430EE0342C13DCC6F1200445EAA4
:101BB00040056D0820FA06F2154321FA06F0A1400F
:101BC0000D43002175F1004250F1000051EB0C0172
:101BD000F0BD00205FEA0C01F0BDCFB992185B4167
:101BE000B3FA83F704BFB2FA82F6BF190B3FB7F11D
:101BF00020062FBF02FA06F3BB40C7F1200622FAE7
:101C000006F638BF3343BA401CB1E419641E33E70B
:101C10007F4231F00041B1FA81F404BFB0FA80F69E
:101C2000A4190B3CB4F120062FBF00FA06F1A14025
:101C3000C4F1200620FA06F638BF3143A0403C1B11
:101C40001AE7AC421ABF05EA1357AF4212E050EA56
:101C500041061CBF52EA4306BFE750EA410730463F
:101C600061461CBF41EA0551F0BD52EA430C08BF72
:101C7000C143F0BD00204FF4001616EB410F98BF92
:101C800016EB430F08BF16EB410F24BFC14305E01D
:101C900016EB430F0CBF61464CEA0551F0BD000046
:101CA000841A71EB030604D26E40001BB141121975
:101CB00073414FF4001C1CEB410F34BF7CEB430617
:101CC00083E00C0DA4EB1356362E00F37C80012E1E
:101CD00045EAC32341DC43EA525312BFD2029202C7
:101CE0005B08240545EAC12141EA5051D2EBC020EE
:101CF000994125D407D1B0FA80F610FA06F162D0E6
:101D00000020203608E0B1FA81F6B140C6F1200289
:101D100020FA02F21143B0404FEAF474B4EB465497
:101D200034F001064FEA74040AD8D6F50016760D91
:101D300004F00044F04061FA06F25040F14048409F
:101D4000C00A40EA415021F0004128BF5FEA500537
:101D500050F1000044EBD12135E0DB0A45EAC12116
:101D6000C90AB6F120050EDD42EA0242120CC5F1A5
:101D7000200603FA06F6EB4042EA06056D4298415A
:101D800061F100010DE062FA06F5F240554063FA98
:101D900006FC82EA0C02F3405A406D42904161EB2E
:101DA000030111F4801F05D1641E620502D06D008D
:101DB0004041494121F48011430875F1004350F13D
:101DC000000041EB045170BC70471CEB410F15D271
:101DD00023F0004352EA43060BD04FEA4C0CBCEB15
:101DE000410F04D80C0D661E342EB7DDEBE7801AC8
:101DF000994150EA410608BF0021E4E708BF1CEB07
:101E0000430F28BF6FF00001DDE70000431A4FF0D9
:101E100000423EBF5340C01AC91800BFD3095FEA51
:101E2000D05C13EB400F34BFB3EB410F40E07CEBD1
:101E3000D1530CD342EA012122D8D1EB402009D35F
:101E4000400A28BF5FEA500140EBCC507047401A6F
:101E500015D04002B0FA80F2521C9040400A4FEA7E
:101E60003C23B3EB026384BF00EB730007E040F454
:101E700000001A16DB07C2F10102D0401843704778
:101E8000182BFCDC31FA03F202FA03F3591A38BFBB
:101E900042F00102D2EB40203CBF4000ACF1010C0B
:101EA0005FEACC5CC20572F100414CEB50207047F8
:101EB00013EB400F0FD2C94209D0ACEBD153022B28
:101EC00003DB4902172BDDDD70479143401AC04206
:101ED000D5D10020704713EB410FD0D36FF0000035
:101EE0007047000080B500F073F800F043F81D481B
:101EF000016841F020010160026802F020020092B6
:101F00000099026842F008020260036803F00803C7
:101F1000009300990268144942F0040202600068CC
:101F2000124A00F0040000900098114801604260DD
:101F30004FF4804100228160C26001614261826190
:101F4000C2610262FEF7D2F8C82000F053F8FFF732
:101F500053F9FFF792FAFFF73BFBFFF736FBFFF76A
:101F60003AFBF6E71810024000580040801A0600BD
:101F7000A001002000B58FB02822002105A8FEF79F
:101F8000ADFF142200216846FEF7A8FF4FF4803110
:101F90000022069107920D910120059009900222DE
:101FA0004FF4E0110C920E9105A8FEF723FD0221DB
:101FB00001910F204FF48061009000220391029262
:101FC000049202216846FEF79FFE0FB000BD00009C
:101FD00080B50748016841F0100101600320FFF758
:101FE000C2F80020FFF75EF8FEF7B2FC002002BD49
:101FF0000020024038B50446FEF76AFF14F1010FD5
:10200000054602D0044908780419FEF761FF401B19
:10201000A042FAD331BD00BF0000002010B50E4A27
:102020000E49106840F00100106053680C480B40E6
:102030005360146804401460116821F48021116019
:102040004FF41F01506820F4FE00506091604FF083
:102050000060044A106010BD001002400000FFF84C
:10206000FFFFF6FE08ED00E00000000000000000A9
:10207000010203040607080910B50749794418311D
:10208000064C7C44163404E00A68081D1144884755
:102090000146A142F8D110BD080000002800000050
:1020A00077E8FFFF08020000100000200000000099
:1020B000F3EDFFFF1000000088000000000000208A
:1020C0000000000000F00DF8002801D0FFF7D4FF59
:1020D000AFF300800020AFF30080FFF703FF00F0B4
:1020E00002F80120704700F001B8000007463846AA
:1020F00000F002F8FBE7000080B5AFF30080024A71
:1021000011001820ABBEFBE7260002007047FEE777
:10211000FEE7FEE7FEE770477047704700F000B843
:1021200002494A68087882184A6070470000002017
:1021300001488047014800471D2000085121000840
:102140000100000000000000100000000024F40066
:10215000AFF30080AFF30080FFF7B4FF0000000092
:1021600001020304FFF7FEBFFFF7FEBFFFF7FEBF4C
:10217000FFF7FEBFFFF7FEBFFFF7FEBFFFF7FEBF93
:10218000FFF7FEBFFFF7FEBFFFF7FEBFFFF7FEBF83
:10219000FFF7FEBFFFF7FEBFFFF7FEBFFFF7FEBF73
:1021A000FFF7FEBFFFF7FEBFFFF7FEBFFFF7FEBF63
:1021B000FFF7FEBFFFF7FEBFFFF7FEBFFFF7FEBF53
:1021C000FFF7FEBFFFF7FEBFFFF7FEBFFFF7FEBF43
:1021D000FFF7FEBFFFF7FEBFFFF7FEBFFFF7FEBF33
:1021E000FFF7FEBFFFF7FEBFFFF7FEBFFFF7FEBF23
:1021F000FFF7FEBFFFF7FEBFFFF7FEBFFFF7FEBF13
:10220000FFF7FEBFFFF7FEBFFFF7FEBFFFF7FEBF02
:04000005080021517D
:00000001FF
